{
  "_format": "hh-sol-artifact-1",
  "contractName": "chai",
  "sourceName": "contracts/chai.sol",
  "abi": [
    {
      "inputs": [],
      "stateMutability": "nonpayable",
      "type": "constructor"
    },
    {
      "inputs": [
        {
          "internalType": "string",
          "name": "_name",
          "type": "string"
        },
        {
          "internalType": "string",
          "name": "_message",
          "type": "string"
        }
      ],
      "name": "buyChai",
      "outputs": [],
      "stateMutability": "payable",
      "type": "function"
    },
    {
      "inputs": [],
      "name": "getMemos",
      "outputs": [
        {
          "components": [
            {
              "internalType": "string",
              "name": "name",
              "type": "string"
            },
            {
              "internalType": "string",
              "name": "message",
              "type": "string"
            },
            {
              "internalType": "address",
              "name": "from",
              "type": "address"
            },
            {
              "internalType": "uint256",
              "name": "timestamp",
              "type": "uint256"
            }
          ],
          "internalType": "struct chai.Memo[]",
          "name": "",
          "type": "tuple[]"
        }
      ],
      "stateMutability": "view",
      "type": "function"
    }
  ],
  "bytecode": "0x608060405234801561001057600080fd5b5033600160006101000a81548173ffffffffffffffffffffffffffffffffffffffff021916908373ffffffffffffffffffffffffffffffffffffffff1602179055506109d6806100616000396000f3fe6080604052600436106100295760003560e01c80636a13d8591461002e578063865c51721461004a575b600080fd5b610048600480360381019061004391906105f4565b610075565b005b34801561005657600080fd5b5061005f610214565b60405161006c919061087a565b60405180910390f35b600034116100b8576040517f08c379a00000000000000000000000000000000000000000000000000000000081526004016100af9061091f565b60405180910390fd5b600160009054906101000a900473ffffffffffffffffffffffffffffffffffffffff1673ffffffffffffffffffffffffffffffffffffffff166108fc349081150290604051600060405180830381858888f19350505050158015610120573d6000803e3d6000fd5b50600060405180608001604052808481526020018381526020013373ffffffffffffffffffffffffffffffffffffffff168152602001428152509080600181540180825580915050600190039060005260206000209060040201600090919091909150600082015181600001908051906020019061019f9291906103f7565b5060208201518160010190805190602001906101bc9291906103f7565b5060408201518160020160006101000a81548173ffffffffffffffffffffffffffffffffffffffff021916908373ffffffffffffffffffffffffffffffffffffffff1602179055506060820151816003015550505050565b60606000805480602002602001604051908101604052809291908181526020016000905b828210156103ee578382906000526020600020906004020160405180608001604052908160008201805461026b9061096e565b80601f01602080910402602001604051908101604052809291908181526020018280546102979061096e565b80156102e45780601f106102b9576101008083540402835291602001916102e4565b820191906000526020600020905b8154815290600101906020018083116102c757829003601f168201915b505050505081526020016001820180546102fd9061096e565b80601f01602080910402602001604051908101604052809291908181526020018280546103299061096e565b80156103765780601f1061034b57610100808354040283529160200191610376565b820191906000526020600020905b81548152906001019060200180831161035957829003601f168201915b505050505081526020016002820160009054906101000a900473ffffffffffffffffffffffffffffffffffffffff1673ffffffffffffffffffffffffffffffffffffffff1673ffffffffffffffffffffffffffffffffffffffff16815260200160038201548152505081526020019060010190610238565b50505050905090565b8280546104039061096e565b90600052602060002090601f016020900481019282610425576000855561046c565b82601f1061043e57805160ff191683800117855561046c565b8280016001018555821561046c579182015b8281111561046b578251825591602001919060010190610450565b5b509050610479919061047d565b5090565b5b8082111561049657600081600090555060010161047e565b5090565b6000604051905090565b600080fd5b600080fd5b600080fd5b600080fd5b6000601f19601f8301169050919050565b7f4e487b7100000000000000000000000000000000000000000000000000000000600052604160045260246000fd5b610501826104b8565b810181811067ffffffffffffffff821117156105205761051f6104c9565b5b80604052505050565b600061053361049a565b905061053f82826104f8565b919050565b600067ffffffffffffffff82111561055f5761055e6104c9565b5b610568826104b8565b9050602081019050919050565b82818337600083830152505050565b600061059761059284610544565b610529565b9050828152602081018484840111156105b3576105b26104b3565b5b6105be848285610575565b509392505050565b600082601f8301126105db576105da6104ae565b5b81356105eb848260208601610584565b91505092915050565b6000806040838503121561060b5761060a6104a4565b5b600083013567ffffffffffffffff811115610629576106286104a9565b5b610635858286016105c6565b925050602083013567ffffffffffffffff811115610656576106556104a9565b5b610662858286016105c6565b9150509250929050565b600081519050919050565b600082825260208201905092915050565b6000819050602082019050919050565b600081519050919050565b600082825260208201905092915050565b60005b838110156106d25780820151818401526020810190506106b7565b838111156106e1576000848401525b50505050565b60006106f282610698565b6106fc81856106a3565b935061070c8185602086016106b4565b610715816104b8565b840191505092915050565b600073ffffffffffffffffffffffffffffffffffffffff82169050919050565b600061074b82610720565b9050919050565b61075b81610740565b82525050565b6000819050919050565b61077481610761565b82525050565b6000608083016000830151848203600086015261079782826106e7565b915050602083015184820360208601526107b182826106e7565b91505060408301516107c66040860182610752565b5060608301516107d9606086018261076b565b508091505092915050565b60006107f0838361077a565b905092915050565b6000602082019050919050565b60006108108261066c565b61081a8185610677565b93508360208202850161082c85610688565b8060005b85811015610868578484038952815161084985826107e4565b9450610854836107f8565b925060208a01995050600181019050610830565b50829750879550505050505092915050565b600060208201905081810360008301526108948184610805565b905092915050565b600082825260208201905092915050565b7f4b696e646c792070757420612076616c75652067726561746572207468616e2060008201527f3000000000000000000000000000000000000000000000000000000000000000602082015250565b600061090960218361089c565b9150610914826108ad565b604082019050919050565b60006020820190508181036000830152610938816108fc565b9050919050565b7f4e487b7100000000000000000000000000000000000000000000000000000000600052602260045260246000fd5b6000600282049050600182168061098657607f821691505b6020821081141561099a5761099961093f565b5b5091905056fea26469706673582212204bbb11ad810c5055cff635b6a4a1594618926acfe674b12c70b828772c0332f764736f6c63430008090033",
  "linkReferences": {},
  "deployedLinkReferences": {}
}